:100000000C942A000C943F000C943F000C943F0089
:100010000C943F000C943F000C943F000C943F0064
:100020000C943F000C943F000C943F000C943F0054
:100030000C943F000C943F000C943F000C943F0044
:100040000C943F000C943F000C943F000C943F0034
:100050000C943F0011241FBECFE5D8E0DEBFCDBF1A
:1000600010E0A0E6B0E0E4ECF1E002C005900D92F3
:10007000AA36B107D9F70E9441000C94E0000C9415
:100080000000DF93CF93CDB7DEB762970FB6F89439
:10009000DEBF0FBECDBFEAE3F0E01082EBE3F0E09D
:1000A0008FEF8083E4E3F0E08FEF8083E5E3F0E01F
:1000B0001082E1E3F0E08FEF8083E2E3F0E0108272
:1000C000CE0104969F878E87E0E6F0E0F98BE88BFF
:1000D000FAE0FA8BE889F989008088899989019684
:1000E000998B888BEE85FF8500828E859F85019692
:1000F0009F878E879A8991509A8BEA89EE2351F7D0
:1001000082E38B83E9E3F0E08081882F90E08170C7
:100110009070009761F48B818F5F8B83E9E3F0E04F
:100120008081882F90E0817090700097B9F3E9E3A7
:10013000F0E080818695882F90E081709070009724
:1001400069F48B8181508B83E9E3F0E080818695AF
:10015000882F90E0817090700097B1F38B819AE0C6
:10016000692F0E94D400892F8A838B819AE0692F9E
:100170000E94D4008983A5E3B0E08A81282F30E073
:10018000CE010496FC01E20FF31F80818C93A2E361
:10019000B0E08981282F30E0CE010496FC01E20F07
:1001A000F31F80818C93AECF991B79E004C0991F17
:1001B000961708F0961B881F7A95C9F780950895C1
:0401C000F894FFCFE1
:0A01C4003F065B4F666D7D077F6FFD
:00000001FF
