:100000000C942A000C943F000C943F000C943F0089
:100010000C943F000C943F000C943F000C943F0064
:100020000C943F000C943F000C943F000C943F0054
:100030000C943F000C943F000C943F000C943F0044
:100040000C943F000C943F000C943F000C943F0034
:100050000C943F0011241FBECFE5D8E0DEBFCDBF1A
:1000600010E0A0E6B0E0ECE8F1E002C005900D92EF
:10007000AA36B107D9F70E9441000C94C4000C9431
:100080000000DF93CF93CDB7DEB763970FB6F89438
:10009000DEBF0FBECDBFEAE3F0E01082EBE3F0E09D
:1000A0008FEF8083E7E3F0E08FEF8083E8E3F0E019
:1000B0001082CE010596988B8F87E0E6F0E0FA8BF0
:1000C000E98BFAE0FB8BE989FA89008089899A89B2
:1000D00001969A8B898BEF85F88900828F859889A4
:1000E0000196988B8F879B8991509B8BEB89EE2390
:1000F00051F7E9E3F0E08081882F90E08170907003
:10010000009779F4A8E3B0E0E8E3F0E08081816053
:100110008C93A8E3B0E0E8E3F0E080818D7F8C93DE
:10012000E8CFE9E3F0E080818695882F90E0817048
:100130009070009779F4A8E3B0E0E8E3F0E0808104
:1001400082608C93A8E3B0E0E8E3F0E080818E7FEA
:100150008C93CFCFE9E3F0E0808186958695882F58
:1001600090E081709070009721F6A8E3B0E0E8E39A
:10017000F0E0808182608C93A8E3B0E0E8E3F0E0F7
:0C018000808181608C93B5CFF894FFCF94
:0A018C003F065B4F666D7D077F6F35
:00000001FF
