:100000000C942A000C943F000C943F000C943F0089
:100010000C943F000C943F000C943F000C943F0064
:100020000C943F000C943F000C943F000C943F0054
:100030000C943F000C943F000C943F000C943F0044
:100040000C943F000C943F000C943F000C943F0034
:100050000C943F0011241FBECFE5D8E0DEBFCDBF1A
:1000600010E0A0E6B0E0EAEAF1E002C005900D92EF
:10007000AA36B107D9F70E9441000C94D3000C9422
:100080000000DF93CF93CDB7DEB760970FB6F8943B
:10009000DEBF0FBECDBFEAE3F0E01082EBE3F0E09D
:1000A0008FEF8083E4E3F0E08FEF8083E5E3F0E01F
:1000B0001082CE0102969D878C87E0E6F0E0FF87F4
:1000C000EE87FAE0F88BEE85FF8500808E859F85B0
:1000D00001969F878E87EC85FD8500828C859D85A6
:1000E00001969D878C8798899150988BE889EE239B
:1000F00051F71982E5E3F0E08A818083E9E3F0E0DB
:100100008081882F90E0817090700097E9F4898158
:100110008F5F89838981893010F089E08983A5E325
:10012000B0E08981282F30E0CE010296FC01E20F79
:10013000F31F80818C93E9E3F0E08081882F90E0C9
:10014000817090700097B9F3E9E3F0E080818695C3
:10015000882F90E0817090700097C9F48981815058
:100160008983A5E3B0E08981282F30E0CE01029693
:10017000FC01E20FF31F80818C93E9E3F0E08081C2
:100180008695882F90E0817090700097B1F38981F7
:10019000882321F08981882309F0B0CFE5E3F0E0DE
:0A01A0008A818083ABCFF894FFCF73
:0A01AA003F065B4F666D7D077F6F17
:00000001FF
